:0908D800D288D28AD2A8D2AA2249
:1008B100759850758920758DFD758BFDD28ED2ACE2
:0108C1002214
:0A08CE00758921758CFF758AD2220E
:10085C00EF146013146013146013146013146013FA
:10086C00240570120209020209060208E102090AB3
:07087C000208F81208FD223A
:040902007511152234
:0409060075111D2228
:0808E100120906D200C2012237
:03090A00C2002206
:0508F800D2010209021B
:0508FD00C20002090227
:0808E9002002FDD2028F9922CA
:100883001208D81208B11208CE75B815D2AFD2A982
:07089300D28C12090680FE61
:03000B00020800E8
:10080000C0E0C0D0C28C758CFF758AD2D28C051026
:10081000C3E5109490748094814003751000E51036
:10082000D395115004D2918002C291D0D0D0E03241
:03002300020830A0
:10083000C0E0C0F0C083C082C0D075D00830980A34
:0A084000C298859912AF1212085CED
:10084A00309904C299C202D0D0D082D083D0F0D0DD
:02085A00E0328A
:0300030002089A56
:10089A00C0D075D000C0073000082001057FFF12C4
:0708AA0008E9D007D0D032AD
:030013000208F1EF
:0708F100300003120906327A
:030000000208C231
:0C08C200787FE4F6D8FD758120020883E1
:00000001FF
